:020000040000FA
:10000000E2EF00F0010EEA6EF40EE96EEF500EE042
:10001000010E016E006A002EFED7012EFBD74A0E9C
:10002000006E002EFED700D0EF2EF2D7000C000E8F
:10003000956E95968C96FA0E0101F46F0001E2DF41
:1000400095968C8675EF00F0080E0101FC6FFC534D
:1000500011E095908C90FB51800B800803E1959204
:100060008C8202D095928C9295908C80D890FB37A0
:10007000FC07EDD70001000C95948C94F8C1FBF1BE
:10008000E3DF000C0101F651070B4009F76FF86F31
:100090000001F2DF0101F5517F0B8009F76FF86F66
:1000A0000001EADF000C95948C84FAC1FBF1CCDFEF
:1000B000000C0101F56BF66B0001E4DF010E01019C
:1000C000F46FF80EF36FF35302E1F45309E0FA6BA7
:1000D0000001E9DF0101F351D8B4F407F307F3D7C6
:1000E0000001000C000E956EA2D7210E0101F86FE1
:1000F0000001C2DFC20E0101F86F0001BDDF130E67
:100100000101F86F0001B8DF200E0101F86F000156
:10011000B3DF090E0101F86F0001AEDF020E01012D
:10012000F36FFA0EF46F00016DDF0101F32FF9D7C1
:10013000080EF86F0001A0DF0A0E0101F46F000144
:1001400061DF0C0E0101F86F000196DFB2DF0101E3
:10015000F56BF66B000196DF4BEF04F00101F351F4
:100160001F0803E2F3517F0801E229D0F351050D86
:10017000F350600FF46FF56BF76B050EF66FF653E7
:1001800002E1F75318E0060EF425E96E000EF521A2
:10019000EA6EEF50036AF86F03C0F9F1F8C1FAF1A3
:1001A000000181DF0101F42BD8B4F52BF651D8B44E
:1001B000F707F607E4D7FA6B000175DF01010001CC
:1001C0005EEF04F0F86AD09EEA6AE96A190EAF6E33
:1001D000A60EAC6E900EAB6EC180C182C184C1967A
:1001E000066A076A086A096A0A6A0B6A0C6A5F0E7D
:1001F0000D6E0E6A0F6A106A070E116E126A136E88
:10020000146A140E156E7F0E166E140E176E7F0E86
:10021000186E140E196E240E1A6E2A0E1B6E7F0EA7
:100220001C6E2A0E1D6E120E1E6E230E1F6E130EF6
:10023000206E080E216E640E226E620E236E360E44
:10024000246E490E256E550E266E220E276E500E18
:10025000286E296A050E2A6E030E2B6E2C6A2D6AF3
:100260002E6A1C0E2F6E220E306E410E316E326AD7
:10027000336A346E220E356E1C0E366E376A140EDB
:10028000386E080E396E3E0E3A6E080E3B6E140E36
:100290003C6E080E3D6E3E6E3E0E3F6E080E406E8A
:1002A000416E426A500E436E300E446E456A466A95
:1002B000080E476E486E496E4A6E4B6E4C6A600E71
:1002C0004D6E4E6E4F6A506A200E516E100E526E79
:1002D000080E536E040E546E020E556E3E0E566E90
:1002E000510E576E490E586E450E596E3E0E5A6E9F
:1002F0005B6A420E5C6E7F0E5D6E400E5E6E5F6AE4
:10030000420E606E610E616E510E626E490E636E3A
:10031000460E646E210E656E410E666E450E676E6A
:100320004B0E686E310E696E180E6A6E140E6B6E8F
:10033000120E6C6E7F0E6D6E100E6E6E270E6F6E4F
:10034000450E706E716E726E390E736E3C0E746E69
:100350004A0E756E490E766E776E300E786E010E0F
:10036000796E710E7A6E090E7B6E050E7C6E030E31
:100370007D6E360E7E6E490E7F6E806F816F360EFB
:10038000826F060E836F490E846F856F290E866F0C
:100390001E0E876F886B360E896F8A6F8B6B8C6B26
:1003A0008D6B560E8E6F360E8F6F906B916B080EA5
:1003B000926F140E936F220E946F410E956F966B91
:1003C000140E976F986F996F9A6F9B6F9C6B410E8D
:1003D0009D6F220E9E6F140E9F6F080EA06F020E6F
:1003E000A16F010EA26F510EA36F090EA46F060E2E
:1003F000A56F320EA66F490EA76F790EA86F410E3A
:10040000A96F3E0EAA6F7E0EAB6F110EAC6FAD6F73
:10041000AE6F7E0EAF6F7F0EB06F490EB16FB26FD1
:10042000B36F360EB46F3E0EB56F410EB66FB76F39
:10043000B86F220EB96F7F0EBA6F410EBB6FBC6FE3
:10044000220EBD6F1C0EBE6F7F0EBF6F490EC06FB8
:10045000C16FC26F410EC36F7F0EC46F090EC56FAF
:10046000C66FC76F010EC86F3E0EC96F410ECA6FCF
:10047000490ECB6FCC6F7A0ECD6F7F0ECE6F080E0C
:10048000CF6FD06FD16F7F0ED26FD36B410ED46F11
:100490007F0ED56F410ED66FD76B200ED86F400EF2
:1004A000D96F410EDA6F3F0EDB6F010EDC6F7F0EEE
:1004B000DD6F080EDE6F140EDF6F220EE06F410E4F
:1004C000E16F7F0EE26F400EE36FE46FE56FE66F62
:1004D0007F0EE76F020EE86F0C0EE96F020EEA6FF7
:1004E0007F0EEB6FEC6F040EED6F080EEE6F100ECB
:1004F000EF6F7F0EF06F3E0EF16F410EF26FF36FF4
:10050000F46F3E0EF56F7F0EF66F090EF76FF86F02
:10051000F96F060EFA6F3E0EFB6F410EFC6F510E27
:10052000FD6F210EFE6F5E0EFF6F7F0E0101006FEB
:10053000090E016F190E026F290E036F460E046F2C
:10054000056F490E066F076F086F310E096F010EB8
:100550000A6F0B6F7F0E0C6F010E0D6F0E6F3F0E4B
:100560000F6F400E106F116F126F3F0E136F1F0E43
:10057000146F200E156F400E166F200E176F1F0E92
:10058000186F3F0E196F400E1A6F380E1B6F400E1A
:100590001C6F3F0E1D6F630E1E6F140E1F6F080E33
:1005A000206F140E216F630E226F070E236F080E4B
:1005B000246F700E256F080E266F070E276F610ED1
:1005C000286F510E296F490E2A6F450E2B6F430E6F
:1005D0002C6F2D6B7F0E2E6F410E2F6F306F316B96
:1005E000020E326F040E336F080E346F100E356F2B
:1005F000200E366F376B410E386F396F7F0E3A6FB2
:100600003B6B040E3C6F020E3D6F010E3E6F020EFF
:100610003F6F040E406F400E416F426F436F446F57
:10062000456F466B010E476F020E486F040E496F0F
:100630004A6B200E4B6F540E4C6F4D6F4E6F780E01
:100640004F6F7F0E506F480E516F440E526F536FB5
:10065000380E546F556F440E566F576F586F200EFB
:10066000596F380E5A6F440E5B6F5C6F480E5D6FAA
:100670007F0E5E6F380E5F6F540E606F616F626F3A
:10068000180E636F080E646F7E0E656F090E666F3D
:10069000010E676F020E686F0C0E696F520E6A6F63
:1006A0006B6F6C6F3E0E6D6F7F0E6E6F080E6F6F0F
:1006B000040E706F716F780E726F736B440E746FEF
:1006C0007D0E756F400E766F776B200E786F400E43
:1006D000796F440E7A6F3D0E7B6F7C6B7F0E7D6F62
:1006E000100E7E6F280E7F6F440E806F816B826BC1
:1006F000410E836F7F0E846F400E856F866B7C0E7C
:10070000876F040E886F180E896F040E8A6F780E3B
:100710008B6F7C0E8C6F080E8D6F040E8E6F8F6F3B
:10072000780E906F380E916F440E926F936F946FA6
:10073000380E956F7C0E966F140E976F986F996FA9
:10074000080E9A6F9B6F140E9C6F9D6F180E9E6F14
:100750007C0E9F6FA06F080EA16F040EA26FA36F97
:10076000080EA46F480EA56F540EA66FA76FA86F52
:10077000200EA96F040EAA6F3F0EAB6F440EAC6F34
:10078000400EAD6F200EAE6F3C0EAF6F400EB06FDF
:10079000B16F200EB26F7C0EB36F1C0EB46F200EC3
:1007A000B56F400EB66F200EB76F1C0EB86F3C0EC3
:1007B000B96F400EBA6F300EBB6F400EBC6F3C0E6F
:1007C000BD6F440EBE6F280EBF6F100EC06F280E97
:1007D000C16F440EC26F0C0EC36F500EC46FC56F55
:1007E000C66F3C0EC76F440EC86F640EC96F540EBF
:1007F000CA6F4C0ECB6F440ECC6FCD6B080ECE6F14
:10080000360ECF6F410ED06FD16BD26BD36B7F0E94
:10081000D46FD56BD66BD76B410ED86F360ED96FB0
:10082000080EDA6FDB6B100EDC6F080EDD6FDE6F0B
:10083000100EDF6F080EE06F780EE16F460EE26F6C
:10084000410EE36F460EE46F780EE56F560EE66FCD
:100850004F0EE76F4C0EE86F540EE96F530EEA6FC0
:10086000EB6BEC6BED6BEE6BEF6BF06BF16BF26BBC
:100870009698C69A949A94889496000EC66EC76EFF
:10088000D190800ED56ECD6A000ECA6E000ECB6E72
:10089000D36A000127D40DDC280E0101F56F1E0E6E
:1008A000F66F000142EC00F03D0E0101F26FF251D3
:1008B000590807E3F2C1F3F1000150D40101F22B12
:1008C000F6D796908D80080EF36FFA0EF46F000144
:1008D00002EC00F00101F32FF8D7410E9EA8FED7DD
:1008E000AD6E96908D90080EF36FFA0EF46F0001C6
:1008F00002EC00F00101F32FF8D7420E9EA8FED7BC
:06090000AD6EDFD703001D
:020000040030CA
:0E00000000220D0E000181000FC00FE00F4026
:00000001FF
;PIC18F452
